:100000000C947B000C94A3000C94A3000C94A3000C
:100010000C94A3000C94A3000C94A3000C94A300D4
:100020000C94A3000C94A3000C94A3000C94A300C4
:100030000C94A3000C94A3000C94A3000C94A300B4
:100040000C94F1050C94A3000C9461060C943B06EF
:100050000C94A3000C94A3000C94A3000C94A30094
:100060000C94A3000C94A3004E414E494E495459A0
:10007000494E46CDCCCC3D0AD7233C17B7D1387773
:10008000CC2B329595E6241FB14F0A000020410089
:1000900000C84200401C4620BCBE4CCA1B0E5AAED3
:1000A000C59D740000000800020100000304070061
:1000B0000000000000000000000000250028002BC8
:1000C0000000000000240027002A000404040404A7
:1000D00004040402020202020203030303030301F5
:1000E00002040810204080010204081020010204CC
:1000F00008102000910711241FBECFEFD8E0DEBF0B
:10010000CDBF22E0A2E6B1E001C01D92A631B20748
:10011000E1F711E0A0E0B1E0E6EFFAE102C00590FE
:100120000D92A236B107D9F710E0CBE7D0E004C0BA
:100130002197FE010E94730BCA37D107C9F70E94AD
:1001400093060C94790D0C94000090E0FC01E152B0
:10015000FF4F249185539F4FFC018491882399F090
:1001600090E0880F991FFC01EF53FF4FA591B491C8
:10017000FC01E954FF4F859194918FB7F894EC916D
:10018000E22BEC938FBF089590E0FC01ED55FF4FFB
:100190002491FC01E152FF4F3491FC01E553FF4FE4
:1001A000E491EE23C9F0222339F0233001F1A8F4C1
:1001B000213019F1223029F1F0E0EE0FFF1FE95450
:1001C000FF4FA591B4918FB7F894EC91611126C0BF
:1001D00030953E233C938FBF08952730A9F02830F7
:1001E000C9F0243049F7809180008F7D03C0809151
:1001F00080008F7780938000DFCF84B58F7784BDB8
:10020000DBCF84B58F7DFBCF8091B0008F7780935B
:10021000B000D2CF8091B0008F7DF9CF3E2BDACFE6
:100220003FB7F89480916B0190916C01A0916D01A2
:10023000B0916E0126B5A89B05C02F3F19F001961D
:10024000A11DB11D3FBFBA2FA92F982F8827BC0130
:10025000CD01620F711D811D911D42E0660F771F58
:10026000881F991F4A95D1F708958F929F92AF9258
:10027000BF92CF92DF92EF92FF926B017C010E94BE
:1002800010014B015C01C114D104E104F104B9F087
:100290000E941001681979098A099B09683E734018
:1002A0008105910580F321E0C21AD108E108F10827
:1002B00088EE880E83E0981EA11CB11CE4CFFF904D
:1002C000EF90DF90CF90BF90AF909F908F90089568
:1002D000AF92BF92CF92DF92EF92FF920F931F9354
:1002E000CF93DF936C017B018B01040F151FEB0192
:1002F0005E01AE18BF08C017D10759F06991D60149
:10030000ED91FC910190F081E02DC6010995892BBA
:1003100079F7C501DF91CF911F910F91FF90EF9079
:10032000DF90CF90BF90AF900895FC01538D448D26
:10033000252F30E0842F90E0821B930B541710F090
:10034000CF96089501970895FC01918D828D98179D
:1003500061F0A28DAE0FBF2FB11D5D968C91928D75
:100360009F5F9F73928F90E008958FEF9FEF0895A6
:100370002FB7F89480916F0190917001A091710155
:10038000B09172012FBF80937B0190937C01A09369
:100390007D01B0937E0183E791E00E94A40197FF65
:1003A00026C02FB7F89480916F0190917001A091B1
:1003B0007101B09172012FBF40917B0150917C017E
:1003C00060917D0170917E01841B950BA60BB70B8C
:1003D00040917701509178016091790170917A0193
:1003E00084179507A607B707B0F28FEF9FEF089520
:1003F000FC01918D828D981731F0828DE80FF11DEF
:10040000858D90E008958FEF9FEF0895FC01918D09
:10041000228D892F90E0805C9F4F821B91098F7302
:100420009927089583E791E00E94060221E0892B35
:1004300009F420E0822F089580E090E0892B29F0D4
:100440000E94120281110C9400000895FC01A48DF9
:10045000A80FB92FB11DA35ABF4F2C91848D90E0E6
:1004600001968F739927848FA689B7892C93A089C9
:10047000B1898C91837080648C93938D848D981353
:1004800006C00288F389E02D80818F7D80830895E6
:10049000EF92FF920F931F93CF93DF93EC0181E0D4
:1004A000888F9B8D8C8D98131AC0E889F98980817B
:1004B00085FF15C09FB7F894EE89FF896083E889AE
:1004C000F98980818370806480839FBF81E090E0A0
:1004D000DF91CF911F910F91FF90EF900895F62E2D
:1004E0000B8D10E00F5F1F4F0F731127E02E8C8DC7
:1004F0008E110CC00FB607FCFACFE889F98980810C
:1005000085FFF5CFCE010E942602F1CFEB8DEC0FD7
:10051000FD2FF11DE35AFF4FF0829FB7F8940B8F28
:10052000EA89FB8980818062CFCFCF93DF93EC0192
:10053000888D8823B9F0AA89BB89E889F9898C91CB
:1005400085FD03C0808186FD0DC00FB607FCF7CF87
:100550008C9185FFF2CF808185FFEDCFCE010E9487
:100560002602E9CFDF91CF910895FC010190002090
:10057000E9F73197AF01481B590BBC0183E791E0C4
:100580000C9468018F929F92AF92BF920F931F932A
:10059000CF93DF93CDB7DEB7A1970FB6F894DEBF48
:1005A0000FBECDBF19A2423008F44AE08E010F5DA4
:1005B0001F4F842E912CB12CA12CA50194010E94D7
:1005C000510BE62FB901CA01EA30F4F4E05DD8011D
:1005D000EE938D01232B242B252B79F790E080E0DF
:1005E000109719F0CD010E94B502A1960FB6F894AC
:1005F000DEBF0FBECDBFDF91CF911F910F91BF9096
:10060000AF909F908F900895E95CE1CF4F925F92F9
:100610006F927F928F929F92AF92BF92CF92DF9212
:10062000EF92FF926B017C01AC019B010E944C0B8D
:100630008823C1F088E191E00E94B5027C0184E248
:1006400091E00E94B5028E0D9F1DFF90EF90DF900C
:10065000CF90BF90AF909F908F907F906F905F9062
:100660004F90089546015701E894B7F82FEF3FEFF8
:100670004FE75FE7C501B4010E944C0B81110DC02B
:100680002FEF3FEF4FE75FE7C501B4010E94330949
:1006900018161CF48CE191E0CFCF2FEF3FEF4FE71E
:1006A0005FE4C701B6010E94470B18161CF480E2F4
:1006B00091E0C2CF2FEF3FEF4FE75FECC701B601EC
:1006C0000E94330987FDF3CF20E030E0A901C70184
:1006D000B6010E943309B12CA12C87FF0AC06DE23C
:1006E00083E791E00E9448025C01F7FAF094F7F882
:1006F000F0942AE037ED43EA5BE3C701B6010E94BC
:10070000AC0A2B013C010E94180B6B017C010E947A
:1007100038099B01AC01C301B2010E94AB0A2B0155
:100720003C014AE0C701B6010E94C2027C01EA0C0A
:10073000FB1C6EE283E791E00E944802E80EF91E7E
:1007400020E030E040E251E4C301B2010E94990987
:100750002B013C010E94180B4B01B12CA12C4AE04B
:10076000C501B4010E94C202E80EF91EC501B40120
:100770000E9438099B01AC01C301B2010E94AB0A7F
:1007800020E030E040E251E40E9499090E94180BF9
:1007900090E080E04AE00E94C202E80EF91E4FCFCE
:1007A000FB0144815581FC012481358124173507E3
:1007B00078F080819181009759F0FB01608171810F
:1007C0006115710529F00E946B0D21E0892B09F05C
:1007D00020E0822F08950F931F93CF93DF93EC01B6
:1007E00088819981009759F02A813B812617370724
:1007F00030F081E0DF91CF911F910F9108958B012F
:100800006F5F7F4F0E949E0C009759F099838883F9
:100810001B830A832C813D81232B59F7FC01108215
:10082000E8CF80E0E7CFCF93DF93EC018881998117
:10083000009711F00E94150C198218821D821C82EB
:100840001B821A82DF91CF910895EF92FF920F934E
:100850001F93CF93DF938C017B01EB010990002064
:10086000E9F72197C61BD70BBE010E94EB0381114C
:1008700009C0C801DF91CF911F910F91FF90EF90B8
:100880000C941304F801D583C483B701808191814E
:10089000DF91CF911F910F91FF90EF900C94640D19
:1008A0009F92AF92BF92CF92DF92EF92FF920F93FF
:1008B0001F93CF93DF93EC016B015A0182E0E82E86
:1008C000F12C4230510520F47A0192E0A92EB12C8E
:1008D000198218821B821A821D821C8266E271E0D4
:1008E000CE010E942504D60114960D911C91E016AC
:1008F000F10658F5A016B10608F48501D601ED9170
:10090000FC911197E00FF11F908010828D919C91C6
:10091000E80EF91EE114F10471F0F70101900020D6
:10092000E9F731975F01AE18BF08B501CE010E940B
:10093000EB03811117C0CE010E941304F6018081E0
:100940009181080F191FD8019C92CE01DF91CF91A0
:100950001F910F91FF90EF90DF90CF90BF90AF90DD
:100960009F900895BD82AC82B701888199810E94D1
:10097000640DE4CFFC0180819181009711F00C940B
:10098000150C0895AF92BF92CF92DF92EF92FF9233
:100990000F931F93CF93DF93CDB7DEB72C970FB68E
:1009A000F894DEBF0FBECDBF83E791E00E94060240
:1009B000892B09F483C018861F821A8619861C8623
:1009C0001B8666E271E0CE0107960E9425040E9414
:1009D000B80197FD1EC08A309105D9F089831A822B
:1009E0000B851C850F5F1F4FB801CE0107960E9433
:1009F000EB03882361F32F8138858B859C85BE01AD
:100A00006F5F7F4F820F931F0E94640D1C870B87BF
:100A1000DECFCF80D884C114D10439F00B851C857A
:100A200076010115110509F05BC01A8219821C823A
:100A30001B821E821D8267E271E0CE0101960E9438
:100A40002504BE016F5F7F4FCE0107960E94D00341
:100A5000182FCE0101960E94BA04112309F47AC01E
:100A60004B855C85BE01695F7F4FCE0101960E9478
:100A7000500489819A81009709F468C00E94BE07DA
:100A800060936201709363018093640190936501A8
:100A9000CE0101960E94BA048AE291E00E94B5025A
:100AA0006091620170916301809164019091650190
:100AB0000E940603CE0107960E94BA042C960FB638
:100AC000F894DEBF0FBECDBFDF91CF911F910F9184
:100AD000FF90EF90DF90CF90BF90AF900895750199
:100AE00057018FEFA81AB80AF7018081082E000C71
:100AF000990B0E941209892B91F7015011090C0DD5
:100B00001D1DF8018081082E000C990B0E9412090E
:100B1000892B31F00E151F0518F001501109F1CF86
:100B2000A8014F5F5F4F4E195F095C874B87CE145A
:100B3000DF0420F4B701C6010E945B0DEF81F88548
:100B40008B859C85E80FF91F10826FCF60E070E005
:100B5000CB0196CF1A8219821C821B821E821D82B3
:100B600065E471E0CE0101960E942504BE016F5F2D
:100B70007F4FCE0107960E94D003182FCE01019619
:100B80000E94BA04112309F495CF4B855C85BE0100
:100B9000695F7F4FCE0101960E94500489819A813E
:100BA0000097D9F00E94BE076093660170936701B9
:100BB0008093680190936901CE0101960E94BA0466
:100BC00088E491E00E94B50260916601709167012E
:100BD00080916801909169016BCF60E070E0CB017A
:100BE000E3CF1F920F920FB60F9211242F933F93D2
:100BF0008F939F93AF93BF9380916F0190917001FA
:100C0000A0917101B091720130916A0123E0230F2C
:100C10002D3758F50196A11DB11D20936A018093CF
:100C20006F0190937001A0937101B0937201809154
:100C30006B0190916C01A0916D01B0916E010196D4
:100C4000A11DB11D80936B0190936C01A0936D0168
:100C5000B0936E01BF91AF919F918F913F912F9172
:100C60000F900FBE0F901F90189526E8230F029645
:100C7000A11DB11DD2CF1F920F920FB60F9211245A
:100C80002F933F934F935F936F937F938F939F9394
:100C9000AF93BF93EF93FF9383E791E00E94260207
:100CA000FF91EF91BF91AF919F918F917F916F9144
:100CB0005F914F913F912F910F900FBE0F901F901A
:100CC00018951F920F920FB60F9211242F938F93A6
:100CD0009F93EF93FF93E0918301F09184018081D2
:100CE000E0918901F0918A0182FD1BC09081809181
:100CF0008C018F5F8F7320918D01821741F0E091FD
:100D00008C01F0E0ED58FE4F958F80938C01FF91A0
:100D1000EF919F918F912F910F900FBE0F901F9089
:100D200018958081F4CF789484B5826084BD84B5B1
:100D3000816084BD85B5826085BD85B5816085BDD6
:100D400080916E00816080936E001092810080918E
:100D50008100826080938100809181008160809316
:100D60008100809180008160809380008091B1003B
:100D700084608093B1008091B00081608093B00066
:100D800080917A00846080937A0080917A008260FA
:100D900080937A0080917A00816080937A008091BC
:100DA0007A00806880937A001092C100E0918301FC
:100DB000F091840182E08083E0917F01F0918001D5
:100DC0001082E0918101F09182018FEC808310927A
:100DD0008B01E0918701F091880186E08083E091AA
:100DE0008501F0918601808180618083E091850199
:100DF000F0918601808188608083E0918501F09187
:100E00008601808180688083E0918501F091860170
:100E100080818F7D80838DE00E94A5008CE00E9400
:100E2000A5008BE00E94A500C0E0D0E00E94C204B3
:100E300061E08DE00E94C40020E030E040E752E431
:100E400060916601709167018091680190916901DC
:100E50000E94990920E030E040E752E40E94AC0A89
:100E600020E030E04AE754E40E9499090E94180B00
:100E70000E94350160E08DE00E94C40064EF71E0E3
:100E800080E090E00E94350161E08CE00E94C400A7
:100E900068E97AE380E090E00E94350160E08CE050
:100EA0000E94C40064EF71E080E090E00E94350190
:100EB0000E94C20461E08BE00E94C40020E030E0A8
:100EC00040E752E460916201709163018091640196
:100ED000909165010E94990920E030E044E353E4D9
:100EE0000E94AC0A20E030E04AE754E40E949909ED
:100EF0000E94180B0E94350160E08BE00E94C40044
:100F000064EF71E080E090E00E943501209709F4E1
:100F10008DCF0E941202882309F488CF0E9400001E
:100F200085CFE3E7F1E01382128288EE93E0A0E040
:100F3000B0E084839583A683B7838AE091E09183B0
:100F4000808385EC90E09587848784EC90E0978798
:100F5000868780EC90E0918B808B81EC90E0938B86
:100F6000828B82EC90E0958B848B86EC90E0978B63
:100F7000868B118E128E138E148E08956627772716
:100F80000C94C207B0E0A0E0E8ECF7E00C946B0A28
:100F90005C017B016115710519F0DB018D939C9358
:100FA00085010F5F1F4FF501D0818D2F90E00E94CA
:100FB00012096C01892BB9F5DD32B9F50F5F1F4FAE
:100FC000D5011196DC91C1E05801F1E0AF1AB108EA
:100FD00043E050E060E770E0C5010E941B09892BE7
:100FE00069F5680182E0C80ED11C45E050E06BE66F
:100FF00070E0C6010E941B09892B21F4680197E06B
:10100000C90ED11CE114F10419F0D701CD92DC9284
:1010100060E070E080E89FEFC111FFC060E070E029
:1010200080E89FE7FAC05801BBCFDB3229F4850185
:101030000E5F1F4FF501D181C0E0C6CF43E050E005
:1010400068E670E0C5010E941B09892BE9F0F801F0
:1010500010E000E020E030E0A9015F01B0ED8B2E50
:101060008D0E89E08815C8F19C2E689491F88C2F1C
:101070008870C2FF16C0811102C00F5F1F4F3196EA
:10108000D501DC91C92DE9CFE114F10429F00E5FFF
:101090001F4FF7011183008360E070E080EC9FE751
:1010A000BCC0882311F001501109A5E0B0E00E94F6
:1010B0005A0A9B01AC01220F331F441F551F280DF4
:1010C000311D411D511D283999E93907490799E119
:1010D0005907A8F2C6609C2ED2CFAEEF8A1206C086
:1010E000C3FD3CC09C2E689493F8C9CFDF7DD534F6
:1010F000A9F580818D3239F4C061DF0112968181BA
:1011000062E070E006C0DF018B32C1F3119661E04E
:1011100070E080535D01A61AB70A8A30F8F4E0E85F
:10112000CE16ECE0DE065CF4B601660F771F660FA4
:10113000771FC60ED71ECC0CDD1CC80ED11C5D015E
:10114000FFEFAF1ABF0A8C9180538A30A8F1C4FF19
:1011500003C0D194C194D1080C0D1D1DC1FF09C05D
:10116000E114F10431F081E0A81AB108D701AD9281
:10117000BC92CA01B9010E943809C370C33009F496
:1011800090584B015C0120E030E0A9010E94330936
:10119000882309F440C0CFE9D0E017FF05C01195BE
:1011A00001951109C7E8D0E06E01B8E1CB1AD1086A
:1011B00080E2E82EF12C0FC0D501B1CFFE012591C0
:1011C0003591459154910E191F09C501B4010E9432
:1011D00099094B015C01D501C4010E151F0574F777
:1011E0002497F594E794CC16DD06A9F78A2F880F8B
:1011F0008B2F881F8F3F49F020E030E0A901C50107
:10120000B4010E943309811106C082E290E09093FC
:10121000110280931002C501B401CDB7DEB7ECE036
:101220000C94870A91110C94060A803219F08950A7
:101230008550C8F70895FB01DC014150504088F00B
:101240008D9181341CF08B350CF4805E6591613496
:101250001CF06B350CF4605E861B611171F3990B09
:101260000895881BFCCF0E94750908F481E0089559
:10127000E89409C097FB3EF4909580957095619530
:101280007F4F8F4F9F4F9923A9F0F92F96E9BB27E6
:101290009395F695879577956795B795F111F8CF62
:1012A000FAF4BB0F11F460FF1BC06F5F7F4F8F4FCD
:1012B0009F4F16C0882311F096E911C0772321F0C3
:1012C0009EE8872F762F05C0662371F096E8862F5B
:1012D00070E060E02AF09A95660F771F881FDAF7B2
:1012E000880F9695879597F90895990F0008550FDF
:1012F000AA0BE0E8FEEF16161706E807F907C0F09C
:1013000012161306E407F50798F0621B730B840BA3
:10131000950B39F40A2661F0232B242B252B21F47D
:1013200008950A2609F4A140A6958FEF811D811D1D
:1013300008950E94AC090C94200A0E94120A38F009
:101340000E94190A20F0952311F00C94090A0C94BC
:101350000F0A11240C94540A0E94310A70F3959FCD
:10136000C1F3950F50E0551F629FF001729FBB279C
:10137000F00DB11D639FAA27F00DB11DAA1F649F38
:101380006627B00DA11D661F829F2227B00DA11DEB
:10139000621F739FB00DA11D621F839FA00D611D71
:1013A000221F749F3327A00D611D231F849F600D92
:1013B000211D822F762F6A2F11249F5750409AF0BB
:1013C000F1F088234AF0EE0FFF1FBB1F661F771F47
:1013D000881F91505040A9F79E3F510580F00C9412
:1013E000090A0C94540A5F3FE4F3983ED4F38695BF
:1013F00077956795B795F795E7959F5FC1F7FE2BB2
:10140000880F911D9695879597F9089599278827B4
:10141000089597F99F6780E870E060E008959FEF76
:1014200080EC089500240A9416161706180609067B
:10143000089500240A94121613061406050608954A
:10144000092E0394000C11F4882352F0BB0F40F4D2
:10145000BF2B11F460FF04C06F5F7F4F8F4F9F4F12
:10146000089557FD9058440F551F59F05F3F71F094
:101470004795880F97FB991F61F09F3F79F08795FB
:101480000895121613061406551FF2CF4695F1DF84
:1014900008C0161617061806991FF1CF8695710514
:1014A000610508940895E894BB2766277727CB0148
:1014B00097F908950E949C0AA59F900DB49F900DE6
:1014C000A49F800D911D112408952F923F924F9259
:1014D0005F926F927F928F929F92AF92BF92CF92C4
:1014E000DF92EF92FF920F931F93CF93DF93CDB7CD
:1014F000DEB7CA1BDB0B0FB6F894DEBF0FBECDBF45
:1015000009942A88398848885F846E847D848C8415
:101510009B84AA84B984C884DF80EE80FD800C811E
:101520001B81AA81B981CE0FD11D0FB6F894DEBF01
:101530000FBECDBFED010895A29FB001B39FC001C2
:10154000A39F700D811D1124911DB29F700D811DEF
:101550001124911D08955058BB27AA270E94C30A41
:101560000C94200A0E94120A38F00E94190A20F0F6
:1015700039F49F3F19F426F40C940F0A0EF4E09509
:10158000E7FB0C94090AE92F0E94310A58F3BA17B5
:10159000620773078407950720F079F4A6F50C9489
:1015A000530A0EF4E0950B2EBA2FA02D0B01B901B2
:1015B00090010C01CA01A0011124FF27591B99F0C9
:1015C000593F50F4503E68F11A16F040A22F232FD5
:1015D000342F4427585FF3CF469537952795A79525
:1015E000F0405395C9F77EF41F16BA0B620B730BCC
:1015F000840BBAF09150A1F0FF0FBB1F661F771F3D
:10160000881FC2F70EC0BA0F621F731F841F48F4F1
:10161000879577956795B795F7959E3F08F0B0CF7A
:101620009395880F08F09927EE0F97958795089561
:101630000E94390A88F09F5798F0B92F9927B7511F
:10164000B0F0E1F0660F771F881F991F1AF0BA9566
:10165000C9F714C0B13091F00E94530AB1E0089567
:101660000C94530A672F782F8827B85F39F0B93F59
:10167000CCF3869577956795B395D9F73EF4909519
:101680008095709561957F4F8F4F9F4F08950E9471
:10169000750908F48FEF08950E947509880B990B5E
:1016A0000895A1E21A2EAA1BBB1BFD010DC0AA1FA3
:1016B000BB1FEE1FFF1FA217B307E407F50720F0BB
:1016C000A21BB30BE40BF50B661F771F881F991F36
:1016D0001A9469F760957095809590959B01AC017F
:1016E000BD01CF010895EE0FFF1F0590F491E02D8D
:1016F00009940F931F93CF93DF938230910510F4D9
:1017000082E090E0E0911402F091150230E020E0D8
:10171000B0E0A0E0309799F42115310509F44AC0F2
:10172000281B390B24303105D8F58A819B8161153E
:10173000710589F1FB0193838283FE0111C0408111
:1017400051810281138148175907E0F04817590762
:1017500099F4109761F012960C93129713961C93BC
:101760003296CF01DF91CF911F910F910895009391
:10177000140210931502F4CF2115310551F04217D0
:10178000530738F0A901DB019A01BD01DF01F8011F
:10179000C1CFEF01F9CF9093150280931402CDCF02
:1017A000FE01E20FF31F8193919322503109398397
:1017B0002883D7CF2091120230911302232B41F4BA
:1017C0002091020130910301309313022093120201
:1017D00020910001309101012115310541F42DB70F
:1017E0003EB74091040150910501241B350BE09157
:1017F0001202F0911302E217F307A0F42E1B3F0B25
:101800002817390778F0AC014E5F5F4F2417350772
:1018100048F04E0F5F1F50931302409312028193C2
:1018200091939FCFF0E0E0E09CCFCF93DF930097C0
:10183000E9F0FC01329713821282A0911402B09158
:101840001502ED0130E020E01097A1F420813181F4
:10185000820F931F2091120230911302281739072B
:1018600009F061C0F0931302E0931202DF91CF916F
:101870000895EA01CE17DF07E8F54A815B819E01F2
:1018800041155105B1F7E901FB83EA83499159916B
:10189000C40FD51FEC17FD0761F48081918102967A
:1018A000840F951FE90199838883828193819B83AB
:1018B0008A83F0E0E0E012968D919C911397009757
:1018C000B9F52D913C911197CD010296820F931F8E
:1018D00020911202309113022817390739F63097F8
:1018E00051F51092150210921402B0931302A093B6
:1018F0001202BCCFD383C28340815181840F951FD4
:10190000C817D90761F44E5F5F4F88819981480FEE
:10191000591F518340838A819B8193838283211540
:10192000310509F0B0CFF0931502E09314029ECF79
:10193000FD01DC01C0CF13821282D7CFB0E0A0E05E
:10194000E4EAFCE00C94670A8C01009751F4CB01A7
:101950000E94790B8C01C801CDB7DEB7E0E10C9491
:10196000830AFC01E60FF71F9C0122503109E217A0
:10197000F30708F49DC0D901CD91DC911197C617EA
:10198000D70798F0C530D10530F3CE0104978617FC
:10199000970708F3C61BD70B2297C193D1936D937A
:1019A0007C93CF010E94150CD6CF5B01AC1ABD0A07
:1019B0004C018C0E9D1EA0911402B0911502512C69
:1019C000412CF12CE12C109731F58091120290916D
:1019D00013028815990509F05CC04616570608F0F1
:1019E00058C08091000190910101009741F48DB79A
:1019F0009EB74091040150910501841B950BE81797
:101A0000F90708F055C0F0931302E0931202F901B0
:101A100071836083A0CF8D919C91119712966C90E9
:101A2000129713967C901397A815B90559F56C0178
:101A300042E0C40ED11CCA14DB0420F1AC014A19E7
:101A40005B09DA011296159780F0628273825183E6
:101A50004083D9016D937C93E114F10471F0D701B7
:101A60001396FC93EE93129776CF22968C0F9D1FC0
:101A7000F90191838083F301EFCFF0931502E09396
:101A8000140269CF4816590608F42C017D01D301D0
:101A90009ACFCB010E94790B7C01009749F0AE01EF
:101AA000B8010E945B0DC8010E94150C870153CF3D
:101AB00010E000E050CFFB01DC0102C001900D926C
:101AC00041505040D8F70895FB01DC0101900D9280
:101AD0000020E1F70895FB01DC014150504030F057
:101AE0008D910190801919F40020B9F7881B990B8A
:061AF0000895F894FFCFF9
:101AF60000001602800000000000480268019501FF
:101B060095020602A401F8016E616E00696E660018
:101B16006F7666000D0A00563A004E7565766F20A0
:101B26007469656D706F207665726465206578747A
:101B360072613A2000523A004E7565766F207469DC
:101B4600656D706F20726F6A6F2065787472613A86
:021B560020006D
:00000001FF
